{
  "contractName": "BitErc20",
  "abi": [
    {
      "inputs": [
        {
          "internalType": "string",
          "name": "name_",
          "type": "string"
        },
        {
          "internalType": "string",
          "name": "symbol_",
          "type": "string"
        }
      ],
      "stateMutability": "nonpayable",
      "type": "constructor"
    },
    {
      "anonymous": false,
      "inputs": [
        {
          "indexed": true,
          "internalType": "address",
          "name": "account",
          "type": "address"
        },
        {
          "indexed": true,
          "internalType": "address",
          "name": "sender",
          "type": "address"
        },
        {
          "indexed": false,
          "internalType": "uint256",
          "name": "value",
          "type": "uint256"
        }
      ],
      "name": "Accept",
      "type": "event"
    },
    {
      "anonymous": false,
      "inputs": [
        {
          "indexed": true,
          "internalType": "address",
          "name": "account",
          "type": "address"
        },
        {
          "indexed": true,
          "internalType": "address",
          "name": "sender",
          "type": "address"
        },
        {
          "indexed": false,
          "internalType": "uint256",
          "name": "value",
          "type": "uint256"
        }
      ],
      "name": "Reject",
      "type": "event"
    },
    {
      "anonymous": false,
      "inputs": [
        {
          "indexed": true,
          "internalType": "address",
          "name": "from",
          "type": "address"
        },
        {
          "indexed": true,
          "internalType": "address",
          "name": "to",
          "type": "address"
        },
        {
          "indexed": false,
          "internalType": "uint256",
          "name": "value",
          "type": "uint256"
        }
      ],
      "name": "Transfer",
      "type": "event"
    },
    {
      "inputs": [],
      "name": "kill",
      "outputs": [],
      "stateMutability": "nonpayable",
      "type": "function"
    },
    {
      "inputs": [
        {
          "internalType": "enum BitErc20.transactionAccount",
          "name": "_account",
          "type": "uint8"
        },
        {
          "internalType": "string",
          "name": "_provider",
          "type": "string"
        },
        {
          "internalType": "string",
          "name": "_billNo",
          "type": "string"
        },
        {
          "internalType": "uint256",
          "name": "_amt",
          "type": "uint256"
        },
        {
          "internalType": "string",
          "name": "_emailTo",
          "type": "string"
        }
      ],
      "name": "setPayment",
      "outputs": [],
      "stateMutability": "nonpayable",
      "type": "function"
    },
    {
      "inputs": [
        {
          "internalType": "uint256",
          "name": "paymentNo",
          "type": "uint256"
        }
      ],
      "name": "getPayment",
      "outputs": [
        {
          "internalType": "string",
          "name": "_provider",
          "type": "string"
        },
        {
          "internalType": "string",
          "name": "_billNo",
          "type": "string"
        },
        {
          "internalType": "uint256",
          "name": "_amt",
          "type": "uint256"
        },
        {
          "internalType": "string",
          "name": "_emailTo",
          "type": "string"
        },
        {
          "internalType": "enum BitErc20.transactionAccount",
          "name": "_accountType",
          "type": "uint8"
        },
        {
          "internalType": "enum BitErc20.transactionState",
          "name": "_accepted",
          "type": "uint8"
        },
        {
          "internalType": "uint256",
          "name": "_validityTime",
          "type": "uint256"
        }
      ],
      "stateMutability": "view",
      "type": "function",
      "constant": true
    },
    {
      "inputs": [],
      "name": "name",
      "outputs": [
        {
          "internalType": "string",
          "name": "",
          "type": "string"
        }
      ],
      "stateMutability": "view",
      "type": "function",
      "constant": true
    },
    {
      "inputs": [],
      "name": "symbol",
      "outputs": [
        {
          "internalType": "string",
          "name": "",
          "type": "string"
        }
      ],
      "stateMutability": "view",
      "type": "function",
      "constant": true
    },
    {
      "inputs": [],
      "name": "decimals",
      "outputs": [
        {
          "internalType": "uint8",
          "name": "",
          "type": "uint8"
        }
      ],
      "stateMutability": "pure",
      "type": "function",
      "constant": true
    },
    {
      "inputs": [],
      "name": "totalSupply",
      "outputs": [
        {
          "internalType": "uint256",
          "name": "",
          "type": "uint256"
        }
      ],
      "stateMutability": "view",
      "type": "function",
      "constant": true
    },
    {
      "inputs": [],
      "name": "sender",
      "outputs": [
        {
          "internalType": "address",
          "name": "_sender",
          "type": "address"
        }
      ],
      "stateMutability": "view",
      "type": "function",
      "constant": true
    },
    {
      "inputs": [],
      "name": "totalSentTransactions",
      "outputs": [
        {
          "internalType": "uint256",
          "name": "",
          "type": "uint256"
        }
      ],
      "stateMutability": "view",
      "type": "function",
      "constant": true
    },
    {
      "inputs": [],
      "name": "totalRecivedTransactions",
      "outputs": [
        {
          "internalType": "uint256",
          "name": "",
          "type": "uint256"
        }
      ],
      "stateMutability": "view",
      "type": "function",
      "constant": true
    },
    {
      "inputs": [
        {
          "internalType": "address",
          "name": "account",
          "type": "address"
        }
      ],
      "name": "getBankBalance",
      "outputs": [
        {
          "internalType": "uint256",
          "name": "CurrentAccount",
          "type": "uint256"
        },
        {
          "internalType": "uint256",
          "name": "Deposit",
          "type": "uint256"
        },
        {
          "internalType": "uint256",
          "name": "Credit",
          "type": "uint256"
        },
        {
          "internalType": "bool",
          "name": "bankUser",
          "type": "bool"
        },
        {
          "internalType": "uint256",
          "name": "ValidityTime",
          "type": "uint256"
        }
      ],
      "stateMutability": "view",
      "type": "function",
      "constant": true
    },
    {
      "inputs": [
        {
          "internalType": "address",
          "name": "account",
          "type": "address"
        },
        {
          "internalType": "uint256",
          "name": "CurrentAccount",
          "type": "uint256"
        },
        {
          "internalType": "uint256",
          "name": "Deposit",
          "type": "uint256"
        },
        {
          "internalType": "uint256",
          "name": "Loan",
          "type": "uint256"
        },
        {
          "internalType": "bool",
          "name": "BankUser",
          "type": "bool"
        }
      ],
      "name": "setBankBalance",
      "outputs": [
        {
          "internalType": "bool",
          "name": "",
          "type": "bool"
        },
        {
          "internalType": "uint256",
          "name": "",
          "type": "uint256"
        }
      ],
      "stateMutability": "nonpayable",
      "type": "function"
    },
    {
      "inputs": [
        {
          "internalType": "uint256",
          "name": "transactionId",
          "type": "uint256"
        }
      ],
      "name": "transactionSent",
      "outputs": [
        {
          "internalType": "address",
          "name": "recipient",
          "type": "address"
        },
        {
          "internalType": "uint256",
          "name": "amt",
          "type": "uint256"
        },
        {
          "internalType": "enum BitErc20.transactionState",
          "name": "accepted",
          "type": "uint8"
        },
        {
          "internalType": "uint256",
          "name": "validityTime",
          "type": "uint256"
        },
        {
          "internalType": "uint256",
          "name": "lastTransaction",
          "type": "uint256"
        }
      ],
      "stateMutability": "view",
      "type": "function",
      "constant": true
    },
    {
      "inputs": [
        {
          "internalType": "uint256",
          "name": "transactionId",
          "type": "uint256"
        }
      ],
      "name": "transactionReceived",
      "outputs": [
        {
          "internalType": "address",
          "name": "recipient",
          "type": "address"
        },
        {
          "internalType": "uint256",
          "name": "amt",
          "type": "uint256"
        },
        {
          "internalType": "enum BitErc20.transactionState",
          "name": "accepted",
          "type": "uint8"
        },
        {
          "internalType": "uint256",
          "name": "validityTime",
          "type": "uint256"
        },
        {
          "internalType": "uint256",
          "name": "lastTransaction",
          "type": "uint256"
        }
      ],
      "stateMutability": "view",
      "type": "function",
      "constant": true
    },
    {
      "inputs": [
        {
          "internalType": "uint256",
          "name": "transactionId",
          "type": "uint256"
        },
        {
          "internalType": "enum BitErc20.transactionAccount",
          "name": "dest",
          "type": "uint8"
        }
      ],
      "name": "approveTransaction",
      "outputs": [],
      "stateMutability": "nonpayable",
      "type": "function"
    },
    {
      "inputs": [
        {
          "internalType": "uint256",
          "name": "transactionId",
          "type": "uint256"
        }
      ],
      "name": "rejectTransaction",
      "outputs": [],
      "stateMutability": "nonpayable",
      "type": "function"
    },
    {
      "inputs": [
        {
          "internalType": "address",
          "name": "recipient",
          "type": "address"
        },
        {
          "internalType": "uint256",
          "name": "amount",
          "type": "uint256"
        },
        {
          "internalType": "enum BitErc20.transactionAccount",
          "name": "fromAccount",
          "type": "uint8"
        }
      ],
      "name": "transfer",
      "outputs": [
        {
          "internalType": "uint256",
          "name": "currentAccountBalance",
          "type": "uint256"
        },
        {
          "internalType": "address",
          "name": "addrsender",
          "type": "address"
        },
        {
          "internalType": "address",
          "name": "addrrecipient",
          "type": "address"
        }
      ],
      "stateMutability": "nonpayable",
      "type": "function"
    },
    {
      "inputs": [
        {
          "internalType": "uint256",
          "name": "amount",
          "type": "uint256"
        }
      ],
      "name": "deposit",
      "outputs": [
        {
          "internalType": "uint256",
          "name": "currentAccountBalance",
          "type": "uint256"
        },
        {
          "internalType": "uint256",
          "name": "depositBalance",
          "type": "uint256"
        }
      ],
      "stateMutability": "nonpayable",
      "type": "function"
    },
    {
      "inputs": [
        {
          "internalType": "uint256",
          "name": "amount",
          "type": "uint256"
        }
      ],
      "name": "withdraw",
      "outputs": [
        {
          "internalType": "uint256",
          "name": "currentAccountBalance",
          "type": "uint256"
        },
        {
          "internalType": "uint256",
          "name": "depositBalance",
          "type": "uint256"
        }
      ],
      "stateMutability": "nonpayable",
      "type": "function"
    },
    {
      "inputs": [
        {
          "internalType": "uint256",
          "name": "amount",
          "type": "uint256"
        }
      ],
      "name": "credit",
      "outputs": [
        {
          "internalType": "uint256",
          "name": "currentAccountBalance",
          "type": "uint256"
        },
        {
          "internalType": "uint256",
          "name": "loanBalance",
          "type": "uint256"
        }
      ],
      "stateMutability": "nonpayable",
      "type": "function"
    },
    {
      "inputs": [
        {
          "internalType": "uint256",
          "name": "amount",
          "type": "uint256"
        }
      ],
      "name": "debit",
      "outputs": [
        {
          "internalType": "uint256",
          "name": "currentAccountBalance",
          "type": "uint256"
        },
        {
          "internalType": "uint256",
          "name": "loanBalance",
          "type": "uint256"
        }
      ],
      "stateMutability": "nonpayable",
      "type": "function"
    },
    {
      "inputs": [
        {
          "internalType": "address",
          "name": "owner",
          "type": "address"
        },
        {
          "internalType": "address",
          "name": "spender",
          "type": "address"
        }
      ],
      "name": "allowance",
      "outputs": [
        {
          "internalType": "uint256",
          "name": "",
          "type": "uint256"
        }
      ],
      "stateMutability": "view",
      "type": "function",
      "constant": true
    },
    {
      "inputs": [
        {
          "internalType": "address",
          "name": "spender",
          "type": "address"
        },
        {
          "internalType": "uint256",
          "name": "addedValue",
          "type": "uint256"
        }
      ],
      "name": "increaseAllowance",
      "outputs": [
        {
          "internalType": "bool",
          "name": "",
          "type": "bool"
        }
      ],
      "stateMutability": "nonpayable",
      "type": "function"
    },
    {
      "inputs": [
        {
          "internalType": "address",
          "name": "spender",
          "type": "address"
        },
        {
          "internalType": "uint256",
          "name": "subtractedValue",
          "type": "uint256"
        }
      ],
      "name": "decreaseAllowance",
      "outputs": [
        {
          "internalType": "bool",
          "name": "",
          "type": "bool"
        }
      ],
      "stateMutability": "nonpayable",
      "type": "function"
    }
  ],
  "bytecode": "0x60806040523480156200001157600080fd5b506040516200427c3803806200427c833981810160405260408110156200003757600080fd5b81019080805160405193929190846401000000008211156200005857600080fd5b838201915060208201858111156200006f57600080fd5b82518660018202830111640100000000821117156200008d57600080fd5b8083526020830192505050908051906020019080838360005b83811015620000c3578082015181840152602081019050620000a6565b50505050905090810190601f168015620000f15780820380516001836020036101000a031916815260200191505b50604052602001805160405193929190846401000000008211156200011557600080fd5b838201915060208201858111156200012c57600080fd5b82518660018202830111640100000000821117156200014a57600080fd5b8083526020830192505050908051906020019080838360005b838110156200018057808201518184015260208101905062000163565b50505050905090810190601f168015620001ae5780820380516001836020036101000a031916815260200191505b506040525050508160089080519060200190620001cd9291906200022f565b508060099080519060200190620001e69291906200022f565b50336000806101000a81548173ffffffffffffffffffffffffffffffffffffffff021916908373ffffffffffffffffffffffffffffffffffffffff1602179055505050620002d5565b828054600181600116156101000203166002900490600052602060002090601f016020900481019282601f106200027257805160ff1916838001178555620002a3565b82800160010185558215620002a3579182015b82811115620002a257825182559160200191906001019062000285565b5b509050620002b29190620002b6565b5090565b5b80821115620002d1576000816000905550600101620002b7565b5090565b613f9780620002e56000396000f3fe608060405234801561001057600080fd5b50600436106101585760003560e01c80635973d88c116100c3578063a457c2d71161007c578063a457c2d7146108da578063b2fb549f1461093e578063b6b55f25146109c9578063dbe58c1f14610a12578063dd62ed3e14610abb578063e609d9fc14610b3357610158565b80635973d88c1461066457806359f6a0021461079e57806367e404ce146107bc57806378da744b146107f057806395d89b41146108395780639c5c3560146108bc57610158565b8063313ce56711610115578063313ce5671461036a5780633280a8361461038b578063395093511461053c57806341c0e1b5146105a05780634249ca96146105aa578063588925af146105e557610158565b806304cdb1711461015d57806305bf37aa146101d357806306fdde031461020157806318160ddd146102845780631a651895146102a25780632e1a7d4d14610321575b600080fd5b61019f6004803603602081101561017357600080fd5b81019080803573ffffffffffffffffffffffffffffffffffffffff169060200190929190505050610b7c565b6040518086815260200185815260200184815260200183151581526020018281526020019550505050505060405180910390f35b6101ff600480360360208110156101e957600080fd5b8101908080359060200190929190505050610cf3565b005b610209610d04565b6040518080602001828103825283818151815260200191508051906020019080838360005b8381101561024957808201518184015260208101905061022e565b50505050905090810190601f1680156102765780820380516001836020036101000a031916815260200191505b509250505060405180910390f35b61028c610da6565b6040518082815260200191505060405180910390f35b6102ce600480360360208110156102b857600080fd5b8101908080359060200190929190505050610db0565b604051808673ffffffffffffffffffffffffffffffffffffffff16815260200185815260200184600281111561030057fe5b81526020018381526020018281526020019550505050505060405180910390f35b61034d6004803603602081101561033757600080fd5b81019080803590602001909291905050506110f5565b604051808381526020018281526020019250505060405180910390f35b610372611190565b604051808260ff16815260200191505060405180910390f35b6103b7600480360360208110156103a157600080fd5b8101908080359060200190929190505050611195565b604051808060200180602001888152602001806020018760028111156103d957fe5b81526020018660028111156103ea57fe5b815260200185815260200184810384528b818151815260200191508051906020019080838360005b8381101561042d578082015181840152602081019050610412565b50505050905090810190601f16801561045a5780820380516001836020036101000a031916815260200191505b5084810383528a818151815260200191508051906020019080838360005b83811015610493578082015181840152602081019050610478565b50505050905090810190601f1680156104c05780820380516001836020036101000a031916815260200191505b50848103825288818151815260200191508051906020019080838360005b838110156104f95780820151818401526020810190506104de565b50505050905090810190601f1680156105265780820380516001836020036101000a031916815260200191505b509a505050505050505050505060405180910390f35b6105886004803603604081101561055257600080fd5b81019080803573ffffffffffffffffffffffffffffffffffffffff1690602001909291908035906020019092919050505061163e565b60405180821515815260200191505060405180910390f35b6105a86116d8565b005b6105e3600480360360408110156105c057600080fd5b8101908080359060200190929190803560ff169060200190929190505050611767565b005b610611600480360360208110156105fb57600080fd5b8101908080359060200190929190505050611778565b604051808673ffffffffffffffffffffffffffffffffffffffff16815260200185815260200184600281111561064357fe5b81526020018381526020018281526020019550505050505060405180910390f35b61079c600480360360a081101561067a57600080fd5b81019080803560ff169060200190929190803590602001906401000000008111156106a457600080fd5b8201836020820111156106b657600080fd5b803590602001918460018302840111640100000000831117156106d857600080fd5b9091929391929390803590602001906401000000008111156106f957600080fd5b82018360208201111561070b57600080fd5b8035906020019184600183028401116401000000008311171561072d57600080fd5b9091929391929390803590602001909291908035906020019064010000000081111561075857600080fd5b82018360208201111561076a57600080fd5b8035906020019184600183028401116401000000008311171561078c57600080fd5b9091929391929390505050611abd565b005b6107a6611e7f565b6040518082815260200191505060405180910390f35b6107c4611ec9565b604051808273ffffffffffffffffffffffffffffffffffffffff16815260200191505060405180910390f35b61081c6004803603602081101561080657600080fd5b8101908080359060200190929190505050611ed1565b604051808381526020018281526020019250505060405180910390f35b610841611f6c565b6040518080602001828103825283818151815260200191508051906020019080838360005b83811015610881578082015181840152602081019050610866565b50505050905090810190601f1680156108ae5780820380516001836020036101000a031916815260200191505b509250505060405180910390f35b6108c461200e565b6040518082815260200191505060405180910390f35b610926600480360360408110156108f057600080fd5b81019080803573ffffffffffffffffffffffffffffffffffffffff16906020019092919080359060200190929190505050612058565b60405180821515815260200191505060405180910390f35b6109aa600480360360a081101561095457600080fd5b81019080803573ffffffffffffffffffffffffffffffffffffffff16906020019092919080359060200190929190803590602001909291908035906020019092919080351515906020019092919050505061214b565b6040518083151581526020018281526020019250505060405180910390f35b6109f5600480360360208110156109df57600080fd5b8101908080359060200190929190505050612357565b604051808381526020018281526020019250505060405180910390f35b610a6b60048036036060811015610a2857600080fd5b81019080803573ffffffffffffffffffffffffffffffffffffffff16906020019092919080359060200190929190803560ff1690602001909291905050506123f2565b604051808481526020018373ffffffffffffffffffffffffffffffffffffffff1681526020018273ffffffffffffffffffffffffffffffffffffffff168152602001935050505060405180910390f35b610b1d60048036036040811015610ad157600080fd5b81019080803573ffffffffffffffffffffffffffffffffffffffff169060200190929190803573ffffffffffffffffffffffffffffffffffffffff169060200190929190505050612454565b6040518082815260200191505060405180910390f35b610b5f60048036036020811015610b4957600080fd5b81019080803590602001909291905050506124db565b604051808381526020018281526020019250505060405180910390f35b6000806000806000600260008773ffffffffffffffffffffffffffffffffffffffff1673ffffffffffffffffffffffffffffffffffffffff16815260200190815260200160002060000154600260008873ffffffffffffffffffffffffffffffffffffffff1673ffffffffffffffffffffffffffffffffffffffff16815260200190815260200160002060010154600260008973ffffffffffffffffffffffffffffffffffffffff1673ffffffffffffffffffffffffffffffffffffffff16815260200190815260200160002060020154600260008a73ffffffffffffffffffffffffffffffffffffffff1673ffffffffffffffffffffffffffffffffffffffff16815260200190815260200160002060030160009054906101000a900460ff16600260008b73ffffffffffffffffffffffffffffffffffffffff1673ffffffffffffffffffffffffffffffffffffffff168152602001908152602001600020600501549450945094509450945091939590929450565b610d01338260026000612576565b50565b606060088054600181600116156101000203166002900480601f016020809104026020016040519081016040528092919081815260200182805460018160011615610100020316600290048015610d9c5780601f10610d7157610100808354040283529160200191610d9c565b820191906000526020600020905b815481529060010190602001808311610d7f57829003601f168201915b5050505050905090565b6000600754905090565b6000806000806000808611610e10576040517f08c379a0000000000000000000000000000000000000000000000000000000008152600401808060200182810382526026815260200180613de36026913960400191505060405180910390fd5b85600360003373ffffffffffffffffffffffffffffffffffffffff1673ffffffffffffffffffffffffffffffffffffffff168152602001908152602001600020600001541015610eab576040517f08c379a0000000000000000000000000000000000000000000000000000000008152600401808060200182810382526026815260200180613e576026913960400191505060405180910390fd5b600086600360003373ffffffffffffffffffffffffffffffffffffffff1673ffffffffffffffffffffffffffffffffffffffff16815260200190815260200160002060000154039050600360003373ffffffffffffffffffffffffffffffffffffffff1673ffffffffffffffffffffffffffffffffffffffff1681526020019081526020016000206001018181548110610f4157fe5b9060005260206000200160009054906101000a900473ffffffffffffffffffffffffffffffffffffffff16600360003373ffffffffffffffffffffffffffffffffffffffff1673ffffffffffffffffffffffffffffffffffffffff1681526020019081526020016000206002018281548110610fb957fe5b9060005260206000200154600360003373ffffffffffffffffffffffffffffffffffffffff1673ffffffffffffffffffffffffffffffffffffffff168152602001908152602001600020600501838154811061101157fe5b90600052602060002090602091828204019190069054906101000a900460ff16600360003373ffffffffffffffffffffffffffffffffffffffff1673ffffffffffffffffffffffffffffffffffffffff168152602001908152602001600020600601848154811061107e57fe5b9060005260206000200154600360003373ffffffffffffffffffffffffffffffffffffffff1673ffffffffffffffffffffffffffffffffffffffff16815260200190815260200160002060030185815481106110d657fe5b9060005260206000200154955095509550955095505091939590929450565b60008061110183612cdf565b600260003373ffffffffffffffffffffffffffffffffffffffff1673ffffffffffffffffffffffffffffffffffffffff16815260200190815260200160002060000154600260003373ffffffffffffffffffffffffffffffffffffffff1673ffffffffffffffffffffffffffffffffffffffff1681526020019081526020016000206001015491509150915091565b600090565b6060806000606060008060006060600560003373ffffffffffffffffffffffffffffffffffffffff1673ffffffffffffffffffffffffffffffffffffffff16815260200190815260200160002060010189815481106111f057fe5b906000526020600020018054600181600116156101000203166002900480601f01602080910402602001604051908101604052809291908181526020018280546001816001161561010002031660029004801561128e5780601f106112635761010080835404028352916020019161128e565b820191906000526020600020905b81548152906001019060200180831161127157829003601f168201915b505050505090506060600560003373ffffffffffffffffffffffffffffffffffffffff1673ffffffffffffffffffffffffffffffffffffffff1681526020019081526020016000206002018a815481106112e457fe5b906000526020600020018054600181600116156101000203166002900480601f0160208091040260200160405190810160405280929190818152602001828054600181600116156101000203166002900480156113825780601f1061135757610100808354040283529160200191611382565b820191906000526020600020905b81548152906001019060200180831161136557829003601f168201915b505050505090506000600560003373ffffffffffffffffffffffffffffffffffffffff1673ffffffffffffffffffffffffffffffffffffffff1681526020019081526020016000206003018b815481106113d857fe5b906000526020600020015490506060600560003373ffffffffffffffffffffffffffffffffffffffff1673ffffffffffffffffffffffffffffffffffffffff1681526020019081526020016000206004018c8154811061143457fe5b906000526020600020018054600181600116156101000203166002900480601f0160208091040260200160405190810160405280929190818152602001828054600181600116156101000203166002900480156114d25780601f106114a7576101008083540402835291602001916114d2565b820191906000526020600020905b8154815290600101906020018083116114b557829003601f168201915b505050505090506000600560003373ffffffffffffffffffffffffffffffffffffffff1673ffffffffffffffffffffffffffffffffffffffff1681526020019081526020016000206005018d8154811061152857fe5b90600052602060002090602091828204019190069054906101000a900460ff1690506000600560003373ffffffffffffffffffffffffffffffffffffffff1673ffffffffffffffffffffffffffffffffffffffff1681526020019081526020016000206006018e8154811061159957fe5b90600052602060002090602091828204019190069054906101000a900460ff1690506000600560003373ffffffffffffffffffffffffffffffffffffffff1673ffffffffffffffffffffffffffffffffffffffff1681526020019081526020016000206007018f8154811061160a57fe5b90600052602060002001549050868686868686869d509d509d509d509d509d509d5050505050505050919395979092949650565b600080600660003373ffffffffffffffffffffffffffffffffffffffff1673ffffffffffffffffffffffffffffffffffffffff16815260200190815260200160002060008573ffffffffffffffffffffffffffffffffffffffff1673ffffffffffffffffffffffffffffffffffffffff1681526020019081526020016000205490506116cd3385858401612e1d565b600191505092915050565b60008054906101000a900473ffffffffffffffffffffffffffffffffffffffff1673ffffffffffffffffffffffffffffffffffffffff163373ffffffffffffffffffffffffffffffffffffffff1614156117655760008054906101000a900473ffffffffffffffffffffffffffffffffffffffff1673ffffffffffffffffffffffffffffffffffffffff16ff5b565b6117743383600184612576565b5050565b60008060008060008086116117d8576040517f08c379a0000000000000000000000000000000000000000000000000000000008152600401808060200182810382526026815260200180613de36026913960400191505060405180910390fd5b85600460003373ffffffffffffffffffffffffffffffffffffffff1673ffffffffffffffffffffffffffffffffffffffff168152602001908152602001600020600001541015611873576040517f08c379a0000000000000000000000000000000000000000000000000000000008152600401808060200182810382526026815260200180613e576026913960400191505060405180910390fd5b600086600460003373ffffffffffffffffffffffffffffffffffffffff1673ffffffffffffffffffffffffffffffffffffffff16815260200190815260200160002060000154039050600460003373ffffffffffffffffffffffffffffffffffffffff1673ffffffffffffffffffffffffffffffffffffffff168152602001908152602001600020600101818154811061190957fe5b9060005260206000200160009054906101000a900473ffffffffffffffffffffffffffffffffffffffff16600460003373ffffffffffffffffffffffffffffffffffffffff1673ffffffffffffffffffffffffffffffffffffffff168152602001908152602001600020600201828154811061198157fe5b9060005260206000200154600460003373ffffffffffffffffffffffffffffffffffffffff1673ffffffffffffffffffffffffffffffffffffffff16815260200190815260200160002060050183815481106119d957fe5b90600052602060002090602091828204019190069054906101000a900460ff16600460003373ffffffffffffffffffffffffffffffffffffffff1673ffffffffffffffffffffffffffffffffffffffff1681526020019081526020016000206006018481548110611a4657fe5b9060005260206000200154600460003373ffffffffffffffffffffffffffffffffffffffff1673ffffffffffffffffffffffffffffffffffffffff1681526020019081526020016000206003018581548110611a9e57fe5b9060005260206000200154955095509550955095505091939590929450565b600560003373ffffffffffffffffffffffffffffffffffffffff1673ffffffffffffffffffffffffffffffffffffffff168152602001908152602001600020600101878790918060018154018082558091505060019003906000526020600020016000909192909192909192909192509190611b3a929190613d1f565b50600560003373ffffffffffffffffffffffffffffffffffffffff1673ffffffffffffffffffffffffffffffffffffffff168152602001908152602001600020600201858590918060018154018082558091505060019003906000526020600020016000909192909192909192909192509190611bb8929190613d1f565b50600560003373ffffffffffffffffffffffffffffffffffffffff1673ffffffffffffffffffffffffffffffffffffffff168152602001908152602001600020600301839080600181540180825580915050600190039060005260206000200160009091909190915055600560003373ffffffffffffffffffffffffffffffffffffffff1673ffffffffffffffffffffffffffffffffffffffff168152602001908152602001600020600401828290918060018154018082558091505060019003906000526020600020016000909192909192909192909192509190611c9f929190613d1f565b50600560003373ffffffffffffffffffffffffffffffffffffffff1673ffffffffffffffffffffffffffffffffffffffff1681526020019081526020016000206005018890806001815401808255809150506001900390600052602060002090602091828204019190069091909190916101000a81548160ff02191690836002811115611d2857fe5b0217905550600560003373ffffffffffffffffffffffffffffffffffffffff1673ffffffffffffffffffffffffffffffffffffffff168152602001908152602001600020600601600190806001815401808255809150506001900390600052602060002090602091828204019190069091909190916101000a81548160ff02191690836002811115611db657fe5b0217905550600560003373ffffffffffffffffffffffffffffffffffffffff1673ffffffffffffffffffffffffffffffffffffffff1681526020019081526020016000206007014290806001815401808255809150506001900390600052602060002001600090919091909150556001600560003373ffffffffffffffffffffffffffffffffffffffff1673ffffffffffffffffffffffffffffffffffffffff168152602001908152602001600020600001600082825401925050819055505050505050505050565b6000600460003373ffffffffffffffffffffffffffffffffffffffff1673ffffffffffffffffffffffffffffffffffffffff16815260200190815260200160002060000154905090565b600033905090565b600080611edd83612faf565b600260003373ffffffffffffffffffffffffffffffffffffffff1673ffffffffffffffffffffffffffffffffffffffff16815260200190815260200160002060000154600260003373ffffffffffffffffffffffffffffffffffffffff1673ffffffffffffffffffffffffffffffffffffffff1681526020019081526020016000206001015491509150915091565b606060098054600181600116156101000203166002900480601f0160208091040260200160405190810160405280929190818152602001828054600181600116156101000203166002900480156120045780601f10611fd957610100808354040283529160200191612004565b820191906000526020600020905b815481529060010190602001808311611fe757829003601f168201915b5050505050905090565b6000600360003373ffffffffffffffffffffffffffffffffffffffff1673ffffffffffffffffffffffffffffffffffffffff16815260200190815260200160002060000154905090565b600080600660003373ffffffffffffffffffffffffffffffffffffffff1673ffffffffffffffffffffffffffffffffffffffff16815260200190815260200160002060008573ffffffffffffffffffffffffffffffffffffffff1673ffffffffffffffffffffffffffffffffffffffff16815260200190815260200160002054905082811015612133576040517f08c379a0000000000000000000000000000000000000000000000000000000008152600401808060200182810382526025815260200180613f3d6025913960400191505060405180910390fd5b6121403385858403612e1d565b600191505092915050565b60008085600260008973ffffffffffffffffffffffffffffffffffffffff1673ffffffffffffffffffffffffffffffffffffffff1681526020019081526020016000206000018190555084600260008973ffffffffffffffffffffffffffffffffffffffff1673ffffffffffffffffffffffffffffffffffffffff1681526020019081526020016000206001018190555083600260008973ffffffffffffffffffffffffffffffffffffffff1673ffffffffffffffffffffffffffffffffffffffff1681526020019081526020016000206002018190555082600260008973ffffffffffffffffffffffffffffffffffffffff1673ffffffffffffffffffffffffffffffffffffffff16815260200190815260200160002060030160006101000a81548160ff02191690831515021790555042600260008973ffffffffffffffffffffffffffffffffffffffff1673ffffffffffffffffffffffffffffffffffffffff1681526020019081526020016000206005018190555085600160008973ffffffffffffffffffffffffffffffffffffffff1673ffffffffffffffffffffffffffffffffffffffff1681526020019081526020016000208190555060018060008973ffffffffffffffffffffffffffffffffffffffff1673ffffffffffffffffffffffffffffffffffffffff16815260200190815260200160002054915091509550959350505050565b600080612363836130ed565b600260003373ffffffffffffffffffffffffffffffffffffffff1673ffffffffffffffffffffffffffffffffffffffff16815260200190815260200160002060000154600260003373ffffffffffffffffffffffffffffffffffffffff1673ffffffffffffffffffffffffffffffffffffffff1681526020019081526020016000206001015491509150915091565b60008060006124033387878761322b565b600160003373ffffffffffffffffffffffffffffffffffffffff1673ffffffffffffffffffffffffffffffffffffffff16815260200190815260200160002054338792509250925093509350939050565b6000600660008473ffffffffffffffffffffffffffffffffffffffff1673ffffffffffffffffffffffffffffffffffffffff16815260200190815260200160002060008373ffffffffffffffffffffffffffffffffffffffff1673ffffffffffffffffffffffffffffffffffffffff16815260200190815260200160002054905092915050565b6000806124e783613be1565b600260003373ffffffffffffffffffffffffffffffffffffffff1673ffffffffffffffffffffffffffffffffffffffff16815260200190815260200160002060000154600260003373ffffffffffffffffffffffffffffffffffffffff1673ffffffffffffffffffffffffffffffffffffffff1681526020019081526020016000206001015491509150915091565b600083116125cf576040517f08c379a0000000000000000000000000000000000000000000000000000000008152600401808060200182810382526026815260200180613de36026913960400191505060405180910390fd5b82600460008673ffffffffffffffffffffffffffffffffffffffff1673ffffffffffffffffffffffffffffffffffffffff16815260200190815260200160002060000154101561266a576040517f08c379a0000000000000000000000000000000000000000000000000000000008152600401808060200182810382526026815260200180613e576026913960400191505060405180910390fd5b600083600460008773ffffffffffffffffffffffffffffffffffffffff1673ffffffffffffffffffffffffffffffffffffffff16815260200190815260200160002060000154039050600060028111156126c057fe5b600460008773ffffffffffffffffffffffffffffffffffffffff1673ffffffffffffffffffffffffffffffffffffffff168152602001908152602001600020600501828154811061270d57fe5b90600052602060002090602091828204019190069054906101000a900460ff16600281111561273857fe5b1461278e576040517f08c379a0000000000000000000000000000000000000000000000000000000008152600401808060200182810382526026815260200180613dbd6026913960400191505060405180910390fd5b6000600460008773ffffffffffffffffffffffffffffffffffffffff1673ffffffffffffffffffffffffffffffffffffffff16815260200190815260200160002060020182815481106127dd57fe5b9060005260206000200154905083600460008873ffffffffffffffffffffffffffffffffffffffff1673ffffffffffffffffffffffffffffffffffffffff168152602001908152602001600020600501838154811061283857fe5b90600052602060002090602091828204019190066101000a81548160ff0219169083600281111561286557fe5b02179055506000600460008873ffffffffffffffffffffffffffffffffffffffff1673ffffffffffffffffffffffffffffffffffffffff16815260200190815260200160002060010183815481106128b957fe5b9060005260206000200160009054906101000a900473ffffffffffffffffffffffffffffffffffffffff169050600460008873ffffffffffffffffffffffffffffffffffffffff1673ffffffffffffffffffffffffffffffffffffffff168152602001908152602001600020600301838154811061293357fe5b9060005260206000200154925084600360008373ffffffffffffffffffffffffffffffffffffffff1673ffffffffffffffffffffffffffffffffffffffff168152602001908152602001600020600501848154811061298e57fe5b90600052602060002090602091828204019190066101000a81548160ff021916908360028111156129bb57fe5b0217905550600160028111156129cd57fe5b8560028111156129d957fe5b1415612c3857600060028111156129ec57fe5b8460028111156129f857fe5b1415612aa05781600260008973ffffffffffffffffffffffffffffffffffffffff1673ffffffffffffffffffffffffffffffffffffffff1681526020019081526020016000206000016000828254019250508190555081600160008973ffffffffffffffffffffffffffffffffffffffff1673ffffffffffffffffffffffffffffffffffffffff16815260200190815260200160002060008282540192505081905550612c33565b600280811115612aac57fe5b846002811115612ab857fe5b1415612b6a57600460008873ffffffffffffffffffffffffffffffffffffffff1673ffffffffffffffffffffffffffffffffffffffff1681526020019081526020016000206002018381548110612b0b57fe5b9060005260206000200154600260008973ffffffffffffffffffffffffffffffffffffffff1673ffffffffffffffffffffffffffffffffffffffff16815260200190815260200160002060020160008282540192505081905550612c32565b60016002811115612b7757fe5b846002811115612b8357fe5b1415612c3157600460008873ffffffffffffffffffffffffffffffffffffffff1673ffffffffffffffffffffffffffffffffffffffff1681526020019081526020016000206002018381548110612bd657fe5b9060005260206000200154600260008973ffffffffffffffffffffffffffffffffffffffff1673ffffffffffffffffffffffffffffffffffffffff168152602001908152602001600020600101600082825401925050819055505b5b5b612cd6565b81600260008973ffffffffffffffffffffffffffffffffffffffff1673ffffffffffffffffffffffffffffffffffffffff1681526020019081526020016000206000016000828254019250508190555081600160008973ffffffffffffffffffffffffffffffffffffffff1673ffffffffffffffffffffffffffffffffffffffff168152602001908152602001600020600082825401925050819055505b50505050505050565b80600260003373ffffffffffffffffffffffffffffffffffffffff1673ffffffffffffffffffffffffffffffffffffffff168152602001908152602001600020600101541015612d7a576040517f08c379a0000000000000000000000000000000000000000000000000000000008152600401808060200182810382526034815260200180613f096034913960400191505060405180910390fd5b80600260003373ffffffffffffffffffffffffffffffffffffffff1673ffffffffffffffffffffffffffffffffffffffff1681526020019081526020016000206000016000828254019250508190555080600260003373ffffffffffffffffffffffffffffffffffffffff1673ffffffffffffffffffffffffffffffffffffffff1681526020019081526020016000206001016000828254039250508190555050565b600073ffffffffffffffffffffffffffffffffffffffff168373ffffffffffffffffffffffffffffffffffffffff161415612ea3576040517f08c379a0000000000000000000000000000000000000000000000000000000008152600401808060200182810382526024815260200180613e7d6024913960400191505060405180910390fd5b600073ffffffffffffffffffffffffffffffffffffffff168273ffffffffffffffffffffffffffffffffffffffff161415612f29576040517f08c379a0000000000000000000000000000000000000000000000000000000008152600401808060200182810382526022815260200180613e356022913960400191505060405180910390fd5b80600660008573ffffffffffffffffffffffffffffffffffffffff1673ffffffffffffffffffffffffffffffffffffffff16815260200190815260200160002060008473ffffffffffffffffffffffffffffffffffffffff1673ffffffffffffffffffffffffffffffffffffffff16815260200190815260200160002081905550505050565b80600260003373ffffffffffffffffffffffffffffffffffffffff1673ffffffffffffffffffffffffffffffffffffffff16815260200190815260200160002060020154101561304a576040517f08c379a0000000000000000000000000000000000000000000000000000000008152600401808060200182810382526034815260200180613f096034913960400191505060405180910390fd5b80600260003373ffffffffffffffffffffffffffffffffffffffff1673ffffffffffffffffffffffffffffffffffffffff1681526020019081526020016000206000016000828254019250508190555080600260003373ffffffffffffffffffffffffffffffffffffffff1673ffffffffffffffffffffffffffffffffffffffff1681526020019081526020016000206002016000828254039250508190555050565b80600260003373ffffffffffffffffffffffffffffffffffffffff1673ffffffffffffffffffffffffffffffffffffffff168152602001908152602001600020600001541015613188576040517f08c379a0000000000000000000000000000000000000000000000000000000008152600401808060200182810382526034815260200180613f096034913960400191505060405180910390fd5b80600260003373ffffffffffffffffffffffffffffffffffffffff1673ffffffffffffffffffffffffffffffffffffffff1681526020019081526020016000206000016000828254039250508190555080600260003373ffffffffffffffffffffffffffffffffffffffff1673ffffffffffffffffffffffffffffffffffffffff1681526020019081526020016000206001016000828254019250508190555050565b600073ffffffffffffffffffffffffffffffffffffffff168473ffffffffffffffffffffffffffffffffffffffff1614156132b1576040517f08c379a0000000000000000000000000000000000000000000000000000000008152600401808060200182810382526034815260200180613ed56034913960400191505060405180910390fd5b600073ffffffffffffffffffffffffffffffffffffffff168373ffffffffffffffffffffffffffffffffffffffff161415613337576040517f08c379a0000000000000000000000000000000000000000000000000000000008152600401808060200182810382526034815260200180613ea16034913960400191505060405180910390fd5b81600260008673ffffffffffffffffffffffffffffffffffffffff1673ffffffffffffffffffffffffffffffffffffffff1681526020019081526020016000206000015410156133d2576040517f08c379a000000000000000000000000000000000000000000000000000000000815260040180806020018281038252602c815260200180613e09602c913960400191505060405180910390fd5b600060028111156133df57fe5b8160028111156133eb57fe5b14156134935781600260008673ffffffffffffffffffffffffffffffffffffffff1673ffffffffffffffffffffffffffffffffffffffff1681526020019081526020016000206000016000828254039250508190555081600160008673ffffffffffffffffffffffffffffffffffffffff1673ffffffffffffffffffffffffffffffffffffffff16815260200190815260200160002060008282540392505081905550613578565b60028081111561349f57fe5b8160028111156134ab57fe5b14156135065781600260003373ffffffffffffffffffffffffffffffffffffffff1673ffffffffffffffffffffffffffffffffffffffff16815260200190815260200160002060020160008282540392505081905550613577565b6001600281111561351357fe5b81600281111561351f57fe5b14156135765781600260003373ffffffffffffffffffffffffffffffffffffffff1673ffffffffffffffffffffffffffffffffffffffff168152602001908152602001600020600101600082825403925050819055505b5b5b600360008573ffffffffffffffffffffffffffffffffffffffff1673ffffffffffffffffffffffffffffffffffffffff168152602001908152602001600020600501600090806001815401808255809150506001900390600052602060002090602091828204019190069091909190916101000a81548160ff0219169083600281111561360157fe5b0217905550600360008573ffffffffffffffffffffffffffffffffffffffff1673ffffffffffffffffffffffffffffffffffffffff168152602001908152602001600020600201829080600181540180825580915050600190039060005260206000200160009091909190915055600360008573ffffffffffffffffffffffffffffffffffffffff1673ffffffffffffffffffffffffffffffffffffffff168152602001908152602001600020600101839080600181540180825580915050600190039060005260206000200160009091909190916101000a81548173ffffffffffffffffffffffffffffffffffffffff021916908373ffffffffffffffffffffffffffffffffffffffff160217905550600360008573ffffffffffffffffffffffffffffffffffffffff1673ffffffffffffffffffffffffffffffffffffffff168152602001908152602001600020600601429080600181540180825580915050600190039060005260206000200160009091909190915055600460008473ffffffffffffffffffffffffffffffffffffffff1673ffffffffffffffffffffffffffffffffffffffff168152602001908152602001600020600501600090806001815401808255809150506001900390600052602060002090602091828204019190069091909190916101000a81548160ff0219169083600281111561380457fe5b0217905550600460008473ffffffffffffffffffffffffffffffffffffffff1673ffffffffffffffffffffffffffffffffffffffff168152602001908152602001600020600201829080600181540180825580915050600190039060005260206000200160009091909190915055600460008473ffffffffffffffffffffffffffffffffffffffff1673ffffffffffffffffffffffffffffffffffffffff168152602001908152602001600020600101849080600181540180825580915050600190039060005260206000200160009091909190916101000a81548173ffffffffffffffffffffffffffffffffffffffff021916908373ffffffffffffffffffffffffffffffffffffffff160217905550600460008473ffffffffffffffffffffffffffffffffffffffff1673ffffffffffffffffffffffffffffffffffffffff168152602001908152602001600020600601429080600181540180825580915050600190039060005260206000200160009091909190915055600360008573ffffffffffffffffffffffffffffffffffffffff1673ffffffffffffffffffffffffffffffffffffffff168152602001908152602001600020600301600460008573ffffffffffffffffffffffffffffffffffffffff1673ffffffffffffffffffffffffffffffffffffffff168152602001908152602001600020600001549080600181540180825580915050600190039060005260206000200160009091909190915055600460008473ffffffffffffffffffffffffffffffffffffffff1673ffffffffffffffffffffffffffffffffffffffff168152602001908152602001600020600301600360008673ffffffffffffffffffffffffffffffffffffffff1673ffffffffffffffffffffffffffffffffffffffff1681526020019081526020016000206000015490806001815401808255809150506001900390600052602060002001600090919091909150556001600360008673ffffffffffffffffffffffffffffffffffffffff1673ffffffffffffffffffffffffffffffffffffffff168152602001908152602001600020600001600082825401925050819055506001600460008573ffffffffffffffffffffffffffffffffffffffff1673ffffffffffffffffffffffffffffffffffffffff168152602001908152602001600020600001600082825401925050819055508273ffffffffffffffffffffffffffffffffffffffff168473ffffffffffffffffffffffffffffffffffffffff167fddf252ad1be2c89b69c2b068fc378daa952ba7f163c4a11628f55a4df523b3ef846040518082815260200191505060405180910390a350505050565b80600260003373ffffffffffffffffffffffffffffffffffffffff1673ffffffffffffffffffffffffffffffffffffffff168152602001908152602001600020600001541015613c7c576040517f08c379a0000000000000000000000000000000000000000000000000000000008152600401808060200182810382526034815260200180613f096034913960400191505060405180910390fd5b80600260003373ffffffffffffffffffffffffffffffffffffffff1673ffffffffffffffffffffffffffffffffffffffff1681526020019081526020016000206000016000828254039250508190555080600260003373ffffffffffffffffffffffffffffffffffffffff1673ffffffffffffffffffffffffffffffffffffffff1681526020019081526020016000206002016000828254019250508190555050565b828054600181600116156101000203166002900490600052602060002090601f016020900481019282601f10613d6057803560ff1916838001178555613d8e565b82800160010185558215613d8e579182015b82811115613d8d578235825591602001919060010190613d72565b5b509050613d9b9190613d9f565b5090565b5b80821115613db8576000816000905550600101613da0565b509056fe45524332303a20556e6b6e6f776e207472616e73616374696f6e2e204572726f72203130303345524332303a20556e6b6e6f776e207472616e73616374696f6e2e204572726f72203130303145524332303a207472616e7366657220696e636f727265637420616d6f756e742e204572726f72203130303345524332303a20617070726f766520746f20746865207a65726f206164647265737345524332303a20556e6b6e6f776e207472616e73616374696f6e2e204572726f72203130303245524332303a20617070726f76652066726f6d20746865207a65726f206164647265737345524332303a207472616e7366657220746f2074686520696e636f727265637420616464726573732e204572726f72203130303245524332303a207472616e736665722066726f6d2074686520756e6b6e6f776e20616464726573732e204572726f72203130303145524332303a204e6f7420656e6f75676820617661696c61626c652066756e6420746f206d616b6520746865206465706f73697445524332303a2064656372656173656420616c6c6f77616e63652062656c6f77207a65726fa2646970667358221220751363efe915ff60d0f6a078793995b4204d8e4f9c08d3fb425ecf40e76cd27064736f6c63430007000033",
  "immutableReferences": {},
  "source": "// SPDX-License-Identifier: MIT\r\npragma solidity >=0.4.22 <0.9.0;\r\n//\r\n//pragma experimental 'ABIEncoderV2';\r\n//import \"@openzeppelin/contracts/token/ERC20/ERC20.sol\";\r\n//ERC20 contains several functions that a compliant token must be able to implement.\r\n//TotalSupply: provides information about the total token supply\r\n//BalanceOf: provides account balance of the owner's account\r\n//Transfer: executes transfers of a specified number of tokens to a specified address\r\n//TransferFrom: executes transfers of a specified number of tokens from a specified address\r\n//Approve: allow a spender to withdraw a set number of tokens from a specified account\r\n//Allowance: returns a set number of tokens from a spender to the owner\r\n//\r\n\r\n\r\ncontract BitErc20 {\r\n \r\n    address payable creator;    \r\n    mapping (address => uint256) private _balances;\r\n    mapping (address => BankBalance) private _bankBalance;\r\n    mapping (address => Transaction) private _senderTransaction;\r\n    mapping (address => Transaction) private _recipientTransaction;\r\n    mapping (address => Payment) private _payment;\r\n\r\n    mapping (address => mapping (address => uint256)) internal _allowances;\r\n    uint256 private _totalSupply;\r\n    string private _name;\r\n    string private _symbol;\r\n\r\n\tstruct BankBalance {  //state of the contract \r\n\t\tuint256 _currentAccount;\r\n\t\tuint256 _deposit;\r\n\t\tuint256 _credit;\r\n\t\tbool _bankUser;\r\n\t\tuint256 _lastTransaction; \r\n\t\tuint256 _validityTime;\r\n    }\r\n\r\n\tstruct Transaction {\r\n\t  uint256 _lastTransaction;\r\n\t  address[] _account;   //holds sender or recipient depending of transaction\r\n\t\tuint256[] _amt;\r\n\t  uint256[] _transactionId;\r\n\t  transactionAccount[] _accountType; \r\n\t\ttransactionState[] _accepted;\r\n\t\tuint256[] _validityTime;\t\t\r\n\t}\r\n\t\r\n\tstruct Payment {\r\n\t  uint256 _lastPayment;\r\n\t  string[] _provider;\r\n\t  string[] _billNo;\r\n\t\tuint256[] _amt;\r\n\t\tstring[] _emailTo;\r\n\t  transactionAccount[] _accountType; \r\n\t\ttransactionState[] _accepted;\r\n\t\tuint256[] _validityTime;\t\t\r\n\t}\r\n\r\n\tenum transactionState {pending, accepted, rejected}\r\n\tenum transactionAccount {CurrentAccount, Deposit, Credit}\r\n\r\n    event Transfer(address indexed from, address indexed to, uint256 value);\r\n    event Accept(address indexed account, address indexed sender, uint256 value);\r\n    event Reject(address indexed account, address indexed sender, uint256 value);\r\n\r\n    constructor (string memory name_, string memory symbol_) {\r\n        _name = name_;\r\n        _symbol = symbol_;\r\n         creator = payable(msg.sender);\r\n    }\r\n\r\n    /**\r\n    * @dev Self Destruct a contract for blockchain.\r\n    * @dev To be used only by the owner and only on extreme situations\r\n    */\r\n    function kill() public {\r\n        if (msg.sender == creator) {\r\n            selfdestruct(creator);\r\n        }\r\n    }\r\n    \r\n    /**\r\n    * @dev Store a payment\r\n    */\r\n    function setPayment(transactionAccount _account, string calldata _provider, string calldata _billNo, uint256 _amt, string calldata _emailTo) public {\r\n\t\t\t\t_payment[msg.sender]._provider.push(_provider);        \r\n\t\t\t  _payment[msg.sender]._billNo.push(_billNo);\r\n\t\t\t\t_payment[msg.sender]._amt.push(_amt);\r\n\t\t\t\t_payment[msg.sender]._emailTo.push(_emailTo);\r\n\t\t\t  _payment[msg.sender]._accountType.push(_account); \r\n\t\t\t\t_payment[msg.sender]._accepted.push(transactionState.accepted);\r\n\t\t\t\t_payment[msg.sender]._validityTime.push(block.timestamp);\t\t\r\n\t  \t\t_payment[msg.sender]._lastPayment+=1;\r\n    }\r\n    \r\n    /**\r\n    * @dev Store a payment\r\n    */\r\n    function getPayment(uint256 paymentNo) public view virtual returns (string memory _provider, string memory _billNo, \r\n       uint256 _amt, string memory _emailTo, transactionAccount _accountType, transactionState _accepted, uint256 _validityTime) {\r\n           \r\n       string memory provider = _payment[msg.sender]._provider[paymentNo]; \r\n       string memory billNo =_payment[msg.sender]._billNo[paymentNo]; \r\n       uint256 amt = _payment[msg.sender]._amt[paymentNo]; \r\n       string memory emailTo = _payment[msg.sender]._emailTo[paymentNo];\r\n       transactionAccount accountType = _payment[msg.sender]._accountType[paymentNo]; \r\n       transactionState accepted = _payment[msg.sender]._accepted[paymentNo]; \r\n       uint256 validityTime = _payment[msg.sender]._validityTime[paymentNo];\r\n       \r\n       return (\r\n\t\t\t\t\t\tprovider,        \r\n\t\t\t\t\t  billNo,\r\n\t\t\t\t\t\tamt,\r\n\t\t\t\t\t\temailTo,\r\n\t\t\t\t\t  accountType, \r\n\t\t\t\t\t\taccepted,\r\n\t\t\t\t\t\tvalidityTime);\r\n    }\r\n    \r\n\r\n    /**\r\n    * @dev Get the token name. Could be useful for apps UI \r\n    */\r\n    function name() public view virtual returns (string memory) {\r\n        return _name;\r\n    }\r\n\r\n    /**\r\n    * @dev Get the token symbol. Could be useful for apps UI \r\n    */\r\n    function symbol() public view virtual returns (string memory) {\r\n        return _symbol;\r\n    }\r\n\r\n    function decimals() public pure virtual returns (uint8) {\r\n        return 0;\r\n    }\r\n\r\n    function totalSupply() public view virtual returns (uint256) {\r\n        return _totalSupply;\r\n    }\r\n\r\n    /**\r\n    * @dev Get the address of who is calling the function. Could be useful for debuging. \r\n    */\r\n    function sender() public view virtual returns (address _sender) {\r\n        return msg.sender;\r\n    }\r\n\r\n    /**\r\n    * @dev Get the number of transactions that was sent by who is calling this function.\r\n    * @dev Useful for looping between transactions. \r\n    */\r\n\t\tfunction totalSentTransactions() public view virtual returns (uint256) {\r\n        return _senderTransaction[msg.sender]._lastTransaction;\r\n        }\r\n\r\n    /**\r\n    * @dev Get the number of transactions that was received by who is calling this function.\r\n    * @dev Useful for looping between transactions. \r\n    */\r\n    function totalRecivedTransactions() public view virtual returns (uint256) {\r\n        return _recipientTransaction[msg.sender]._lastTransaction;\r\n    }\r\n\r\n    /**\r\n    * @dev Get bank balances. \r\n    * @param account The user account address.\r\n    * @param CurrentAccount The current account balance.\r\n    * @param Deposit The deposit balance.\r\n    * @param Credit The loan balance.\r\n    */\r\n    function getBankBalance(address account) public view virtual returns (uint256 CurrentAccount, uint256 Deposit, uint256 Credit, bool bankUser, uint256 ValidityTime) {\r\n        return (\r\n            _bankBalance[account]._currentAccount, \r\n            _bankBalance[account]._deposit, \r\n            _bankBalance[account]._credit,\r\n            _bankBalance[account]._bankUser,  \r\n            _bankBalance[account]._validityTime\r\n        );\r\n    }\r\n\r\n    /**\r\n    * @dev Set bank balances. Useful for the bank to synchronize balances \r\n    * @dev between the bank and the blockchain network\r\n    * @param account The user account address to be set.\r\n    * @param CurrentAccount The current account balance.\r\n    * @param Deposit The deposit balance.\r\n    * @param Loan The loan balance.\r\n    */\r\n    function setBankBalance(address account, uint256 CurrentAccount, uint256 Deposit, uint256 Loan, bool BankUser) public virtual returns (bool, uint256) {\r\n        _bankBalance[account]._currentAccount = CurrentAccount;\r\n        _bankBalance[account]._deposit = Deposit;\r\n        _bankBalance[account]._credit = Loan;\r\n        _bankBalance[account]._bankUser = BankUser;\r\n        _bankBalance[account]._validityTime = block.timestamp;\r\n        _balances[account] = CurrentAccount;\r\n        return (true, _balances[account]);\r\n    }\r\n\r\n    /**\r\n    * @dev Get transaction metadata sent by the caller of the function. \r\n    * @param recipient The recipient account to be queried.\r\n    * @param transactionId The transaction Id.\r\n    * @param amt The transaction amount.\r\n    * @param accepted The transaction approving state.\r\n    */\r\n    function transactionSent(uint256 transactionId) public view virtual returns (address recipient, uint256 amt, transactionState accepted, uint256 validityTime, uint256 lastTransaction) {\r\n        require(transactionId > 0, \"ERC20: Unknown transaction. Error 1001\");\r\n        require(_senderTransaction[msg.sender]._lastTransaction >= transactionId, \"ERC20: Unknown transaction. Error 1002\");\r\n        uint256 _transactionId = _senderTransaction[msg.sender]._lastTransaction - transactionId;\r\n        return (\r\n            \t_senderTransaction[msg.sender]._account[_transactionId], \r\n            \t_senderTransaction[msg.sender]._amt[_transactionId], \r\n            \t_senderTransaction[msg.sender]._accepted[_transactionId], \r\n            \t_senderTransaction[msg.sender]._validityTime[_transactionId],\r\n            \t_senderTransaction[msg.sender]._transactionId[_transactionId]           \t\r\n        );\r\n    }\r\n\r\n    /**\r\n    * @dev Get transaction metadata received by the caller of the function. \r\n    * @param recipient The recipient account to be queried.\r\n    * @param transactionId The transaction Id.\r\n    * @param amt The transaction amount.\r\n    * @param accepted The transaction approving state.\r\n    */\r\n    function transactionReceived(uint256 transactionId) public view virtual returns (address recipient, uint256 amt, transactionState accepted, uint256 validityTime, uint256 lastTransaction) {\r\n        require(transactionId > 0, \"ERC20: Unknown transaction. Error 1001\");\r\n        require(_recipientTransaction[msg.sender]._lastTransaction >= transactionId, \"ERC20: Unknown transaction. Error 1002\");\r\n        uint256 _transactionId = _recipientTransaction[msg.sender]._lastTransaction - transactionId;\r\n        return (\r\n            \t_recipientTransaction[msg.sender]._account[_transactionId], \r\n            \t_recipientTransaction[msg.sender]._amt[_transactionId], \r\n            \t_recipientTransaction[msg.sender]._accepted[_transactionId], \r\n            \t_recipientTransaction[msg.sender]._validityTime[_transactionId],\r\n            \t_recipientTransaction[msg.sender]._transactionId[_transactionId]           \t\r\n        );\r\n    }\r\n\r\n\r\n\r\n    /**\r\n    * @dev Approve one transaction from sender to caller and add the amount to my current account balance. \r\n    * @param transactionId The ID of the transaction to be accepted. The transaction must be in pending state\r\n    */\r\n    function approveTransaction(uint256 transactionId, transactionAccount dest) public virtual {\r\n\t\t\t\t_approveTransaction(msg.sender, transactionId, transactionState.accepted, dest);\r\n    }\r\n\r\n    /**\r\n    * @dev Deny one transaction from sender and add the amount to back to the sender current account balance. \r\n    * @param transactionId The ID of the transaction to be accepted. The transaction must be in pending state\r\n    */\r\n    function rejectTransaction(uint256 transactionId) public virtual{\r\n\t\t\t\t_approveTransaction(msg.sender, transactionId, transactionState.rejected, transactionAccount.CurrentAccount);\t\t\t\t\t    \t\t\r\n    }\r\n\r\n    /**\r\n    * @dev Transfer token to a specified address. \r\n    * @dev Sender must have at least the amount requested to be transfered\r\n    * @param recipient The address to transfer to.\r\n    * @param amount The amount to be transferred.\r\n    * @param currentAccountBalance Updated sender current account balance\r\n    * @param addrsender Sender address\r\n    * @param addrrecipient Recipient address\r\n    */\r\n    function transfer(address recipient, uint256 amount, transactionAccount fromAccount) public virtual returns (uint256 currentAccountBalance, address addrsender, address addrrecipient) {\r\n        _transfer(msg.sender, recipient, amount, fromAccount);\r\n        return (_balances[msg.sender], msg.sender, recipient);\r\n    }\r\n\r\n    /**\r\n    * @dev Make a deposit. Updated balances will be returned\r\n    * @dev The user must have enough funds in his current account\r\n    * @param amount The amount to be deposit.\r\n    * @param currentAccountBalance Updated current account balance\r\n    * @param depositBalance Updated deposit balance\r\n    */\r\n    function deposit(uint256 amount) public virtual returns (uint256 currentAccountBalance, uint256 depositBalance) {\r\n        _deposit(amount);\r\n        return (_bankBalance[msg.sender]._currentAccount, _bankBalance[msg.sender]._deposit);\r\n    }\r\n\r\n    /**\r\n    * @dev Withdraw from deposit. Updated balances will be returned\r\n    * @dev The user must have enough funds in his deposit account\r\n    * @param amount The amount to be withdraw.\r\n    * @param currentAccountBalance Updated current account balance\r\n    * @param depositBalance Updated deposit balance\r\n    */\r\n    function withdraw(uint256 amount) public virtual returns (uint256 currentAccountBalance, uint256 depositBalance) {\r\n        _withdraw(amount);\r\n        return (_bankBalance[msg.sender]._currentAccount, _bankBalance[msg.sender]._deposit);\r\n    }\r\n\r\n    /**\r\n    * @dev Credit my account by amount. Updated balances will be returned\r\n    * @dev The user must have enough funds in his credit account\r\n    * @param amount The amount to be added to the current account..\r\n    * @param currentAccountBalance Updated current account balance\r\n    * @param loanBalance Updated credit balance\r\n    */\r\n    function credit(uint256 amount) public virtual returns (uint256 currentAccountBalance, uint256 loanBalance) {\r\n        _credit(amount);\r\n        return (_bankBalance[msg.sender]._currentAccount, _bankBalance[msg.sender]._deposit);\r\n    }\r\n\r\n    /**\r\n    * @dev Debit my account by amount. Updated balances will be returned\r\n    * @dev The user must have enough funds in his current account\r\n    * @param amount The amount to be deducted from the current account..\r\n    * @param currentAccountBalance Updated current account balance\r\n    * @param loanBalance Updated credit balance\r\n    */\r\n    function debit(uint256 amount) public virtual returns (uint256 currentAccountBalance, uint256 loanBalance) {\r\n        _debit(amount);\r\n        return (_bankBalance[msg.sender]._currentAccount, _bankBalance[msg.sender]._deposit);\r\n    }\r\n\r\n    function allowance(address owner, address spender) public view virtual returns (uint256) {\r\n        return _allowances[owner][spender];\r\n    }\r\n\r\n    function approve(address spender, uint256 amount) internal virtual returns (bool) {\r\n        _approve(msg.sender, spender, amount);\r\n        return true;\r\n    }\r\n\r\n    function increaseAllowance(address spender, uint256 addedValue) public virtual returns (bool) {\r\n        uint256 currentAllowance = _allowances[msg.sender][spender];\r\n        _approve(msg.sender, spender, currentAllowance + addedValue);\r\n        return true;\r\n    }\r\n\r\n    function decreaseAllowance(address spender, uint256 subtractedValue) public virtual returns (bool) {\r\n        uint256 currentAllowance = _allowances[msg.sender][spender];\r\n        require(currentAllowance >= subtractedValue, \"ERC20: decreased allowance below zero\");\r\n        _approve(msg.sender, spender, currentAllowance - subtractedValue);\r\n\r\n        return true;\r\n    }\r\n\r\n    function _transfer(address _sender, address recipient, uint256 amount, transactionAccount fromAccount) internal virtual {\r\n        require(_sender != address(0), \"ERC20: transfer from the unknown address. Error 1001\");\r\n        require(recipient != address(0), \"ERC20: transfer to the incorrect address. Error 1002\");\r\n        require(_bankBalance[_sender]._currentAccount >= amount, \"ERC20: transfer incorrect amount. Error 1003\");\r\n\r\n        if (fromAccount == transactionAccount.CurrentAccount) {\r\n\t\t        _bankBalance[_sender]._currentAccount -= amount;\r\n\t\t\t    \t_balances[_sender] -= amount;\r\n        } else if (fromAccount == transactionAccount.Credit) {\r\n\t\t\t    \t_bankBalance[msg.sender]._credit -= amount;\r\n        } else if (fromAccount == transactionAccount.Deposit){\r\n\t\t\t    \t_bankBalance[msg.sender]._deposit -= amount;\r\n        }\r\n        \r\n\t\t\t\t_senderTransaction[_sender]._accepted.push(transactionState.pending);\r\n\t\t\t\t_senderTransaction[_sender]._amt.push(amount);\r\n\t\t\t\t_senderTransaction[_sender]._account.push(recipient);\r\n\t\t\t\t_senderTransaction[_sender]._validityTime.push(block.timestamp);\r\n\t\t\t\t\r\n\t\t\t\t_recipientTransaction[recipient]._accepted.push(transactionState.pending);\r\n\t\t\t\t_recipientTransaction[recipient]._amt.push(amount);\r\n\t\t\t\t_recipientTransaction[recipient]._account.push(_sender);\r\n\t\t\t\t_recipientTransaction[recipient]._validityTime.push(block.timestamp);\r\n\r\n\t\t\t\t_senderTransaction[_sender]._transactionId.push(_recipientTransaction[recipient]._lastTransaction);\r\n\t\t\t\t_recipientTransaction[recipient]._transactionId.push(_senderTransaction[_sender]._lastTransaction);\r\n\t\t\t\t_senderTransaction[_sender]._lastTransaction += 1;\r\n\t\t\t\t_recipientTransaction[recipient]._lastTransaction += 1;\r\n\r\n        emit Transfer(_sender, recipient, amount);\r\n    }\r\n\r\n\r\n    function _mint(address account, uint256 amount) internal virtual {\r\n        require(account != address(0), \"ERC20: mint to the zero address\");\r\n        _totalSupply += amount;\r\n        _balances[account] += amount;\r\n    }\r\n\r\n    function _burn(address account, uint256 amount) internal virtual {\r\n        require(account != address(0), \"ERC20: burn from the zero address\");\r\n\r\n        uint256 accountBalance = _balances[account];\r\n        require(accountBalance >= amount, \"ERC20: burn amount exceeds balance\");\r\n        _balances[account] = accountBalance - amount;\r\n        _totalSupply -= amount;\r\n\r\n        //emit Transfer(account, address(0), amount);\r\n    }\r\n\r\n    function _deposit(uint256 amount) internal virtual {\r\n        require(_bankBalance[msg.sender]._currentAccount >= amount, \"ERC20: Not enough available fund to make the deposit\");\r\n        _bankBalance[msg.sender]._currentAccount -= amount;\r\n        _bankBalance[msg.sender]._deposit += amount;\r\n        //emit Approval(owner, spender, amount);\r\n    }\r\n\r\n    function _withdraw(uint256 amount) internal virtual {\r\n        require(_bankBalance[msg.sender]._deposit >= amount, \"ERC20: Not enough available fund to make the deposit\");\r\n        _bankBalance[msg.sender]._currentAccount += amount;\r\n        _bankBalance[msg.sender]._deposit -= amount;\r\n        //emit Approval(owner, spender, amount);\r\n    }\r\n    \r\n    function _debit(uint256 amount) internal virtual {\r\n        require(_bankBalance[msg.sender]._currentAccount >= amount, \"ERC20: Not enough available fund to make the deposit\");\r\n        _bankBalance[msg.sender]._currentAccount -= amount;\r\n        _bankBalance[msg.sender]._credit += amount;\r\n        //emit Approval(owner, spender, amount);\r\n    }\r\n\r\n    function _credit(uint256 amount) internal virtual {\r\n        require(_bankBalance[msg.sender]._credit >= amount, \"ERC20: Not enough available fund to make the deposit\");\r\n        _bankBalance[msg.sender]._currentAccount += amount;\r\n        _bankBalance[msg.sender]._credit -= amount;\r\n        //emit Approval(owner, spender, amount);\r\n    }\r\n    \r\n    function _approve(address owner, address spender, uint256 amount) internal virtual {\r\n        require(owner != address(0), \"ERC20: approve from the zero address\");\r\n        require(spender != address(0), \"ERC20: approve to the zero address\");\r\n\r\n        _allowances[owner][spender] = amount;\r\n        //emit Approval(owner, spender, amount);\r\n    }\r\n    \r\n    function _approveTransaction(address account, uint256 transactionId, transactionState state, transactionAccount dest) internal  {\r\n\r\n        require(transactionId > 0, \"ERC20: Unknown transaction. Error 1001\");\r\n        require(_recipientTransaction[account]._lastTransaction >= transactionId, \"ERC20: Unknown transaction. Error 1002\");\r\n        uint256 _transactionId = _recipientTransaction[account]._lastTransaction - transactionId;\r\n        require (_recipientTransaction[account]._accepted[_transactionId] == transactionState.pending,\"ERC20: Unknown transaction. Error 1003\");\r\n\t\t\t\tuint256 amount =  _recipientTransaction[account]._amt[_transactionId];\r\n\t\t\t\t\r\n\t\t\t\t//Approve my transaction\r\n\t    \t_recipientTransaction[account]._accepted[_transactionId] = state;   \t\r\n\r\n\t\t\t\t//Approve sender transaction\r\n\t    \taddress _sender = _recipientTransaction[account]._account[_transactionId];\r\n\t    \t_transactionId = _recipientTransaction[account]._transactionId[_transactionId];\t\t\t\r\n \t    \t_senderTransaction[_sender]._accepted[_transactionId] = state;\r\n\r\n\t\t\t\t//Add amount to my account\r\n\t\t\t\tif (state == transactionState.accepted) {\r\n\t\t        if (dest == transactionAccount.CurrentAccount) {\r\n\t\t\t\t\t    \t_bankBalance[account]._currentAccount += amount;\r\n\t\t\t\t\t    \t_balances[account] += amount;\r\n\t\t        } else if (dest == transactionAccount.Credit) {\r\n\t\t\t\t\t    \t_bankBalance[account]._credit += _recipientTransaction[account]._amt[_transactionId];\r\n\t\t        } else if (dest == transactionAccount.Deposit){\r\n\t\t\t\t\t    \t_bankBalance[account]._deposit += _recipientTransaction[account]._amt[_transactionId];\r\n\t\t        }\r\n\t\t    } else {\r\n\t\t\t    \t_bankBalance[account]._currentAccount += amount;\r\n\t\t\t    \t_balances[account] += amount;\t\t        \r\n\t\t    }\t\t\t\t\r\n    }\r\n\r\n    function balanceOf(address account) internal view virtual returns (uint256) {\r\n        return _balances[account];\r\n    }\r\n\r\n    /**\r\n     * @dev Hook that is called before any transfer of tokens. This includes\r\n     * minting and burning.\r\n     *\r\n     * Calling conditions:\r\n     *\r\n     * - when `from` and `to` are both non-zero, `amount` of ``from``'s tokens\r\n     * will be to transferred to `to`.\r\n     * - when `from` is zero, `amount` tokens will be minted for `to`.\r\n     * - when `to` is zero, `amount` of ``from``'s tokens will be burned.\r\n     * - `from` and `to` are never both zero.\r\n     *\r\n     * To learn more about hooks, head to xref:ROOT:extending-contracts.adoc#using-hooks[Using Hooks].\r\n     */\r\n\r\n}",
  "sourcePath": "C:\\code\\kaleido\\contracts\\bit_ERC20.sol",
  "compiler": {
    "name": "solc",
    "version": "0.7.0+commit.9e61f92b.Emscripten.clang"
  },
  "schemaVersion": "3.4.4",
  "updatedAt": "2022-01-31T22:15:17.577Z",
  "networkType": "ethereum",
  "devdoc": {
    "kind": "dev",
    "methods": {
      "approveTransaction(uint256,uint8)": {
        "details": "Approve one transaction from sender to caller and add the amount to my current account balance. ",
        "params": {
          "transactionId": "The ID of the transaction to be accepted. The transaction must be in pending state"
        }
      },
      "credit(uint256)": {
        "details": "Credit my account by amount. Updated balances will be returnedThe user must have enough funds in his credit account",
        "params": {
          "amount": "The amount to be added to the current account..",
          "currentAccountBalance": "Updated current account balance",
          "loanBalance": "Updated credit balance"
        }
      },
      "debit(uint256)": {
        "details": "Debit my account by amount. Updated balances will be returnedThe user must have enough funds in his current account",
        "params": {
          "amount": "The amount to be deducted from the current account..",
          "currentAccountBalance": "Updated current account balance",
          "loanBalance": "Updated credit balance"
        }
      },
      "deposit(uint256)": {
        "details": "Make a deposit. Updated balances will be returnedThe user must have enough funds in his current account",
        "params": {
          "amount": "The amount to be deposit.",
          "currentAccountBalance": "Updated current account balance",
          "depositBalance": "Updated deposit balance"
        }
      },
      "getBankBalance(address)": {
        "details": "Get bank balances. ",
        "params": {
          "Credit": "The loan balance.",
          "CurrentAccount": "The current account balance.",
          "Deposit": "The deposit balance.",
          "account": "The user account address."
        }
      },
      "getPayment(uint256)": {
        "details": "Store a payment"
      },
      "kill()": {
        "details": "Self Destruct a contract for blockchain.To be used only by the owner and only on extreme situations"
      },
      "name()": {
        "details": "Get the token name. Could be useful for apps UI "
      },
      "rejectTransaction(uint256)": {
        "details": "Deny one transaction from sender and add the amount to back to the sender current account balance. ",
        "params": {
          "transactionId": "The ID of the transaction to be accepted. The transaction must be in pending state"
        }
      },
      "sender()": {
        "details": "Get the address of who is calling the function. Could be useful for debuging. "
      },
      "setBankBalance(address,uint256,uint256,uint256,bool)": {
        "details": "Set bank balances. Useful for the bank to synchronize balances between the bank and the blockchain network",
        "params": {
          "CurrentAccount": "The current account balance.",
          "Deposit": "The deposit balance.",
          "Loan": "The loan balance.",
          "account": "The user account address to be set."
        }
      },
      "setPayment(uint8,string,string,uint256,string)": {
        "details": "Store a payment"
      },
      "symbol()": {
        "details": "Get the token symbol. Could be useful for apps UI "
      },
      "totalRecivedTransactions()": {
        "details": "Get the number of transactions that was received by who is calling this function.Useful for looping between transactions. "
      },
      "totalSentTransactions()": {
        "details": "Get the number of transactions that was sent by who is calling this function.Useful for looping between transactions. "
      },
      "transactionReceived(uint256)": {
        "details": "Get transaction metadata received by the caller of the function. ",
        "params": {
          "accepted": "The transaction approving state.",
          "amt": "The transaction amount.",
          "recipient": "The recipient account to be queried.",
          "transactionId": "The transaction Id."
        }
      },
      "transactionSent(uint256)": {
        "details": "Get transaction metadata sent by the caller of the function. ",
        "params": {
          "accepted": "The transaction approving state.",
          "amt": "The transaction amount.",
          "recipient": "The recipient account to be queried.",
          "transactionId": "The transaction Id."
        }
      },
      "transfer(address,uint256,uint8)": {
        "details": "Transfer token to a specified address. Sender must have at least the amount requested to be transfered",
        "params": {
          "addrrecipient": "Recipient address",
          "addrsender": "Sender address",
          "amount": "The amount to be transferred.",
          "currentAccountBalance": "Updated sender current account balance",
          "recipient": "The address to transfer to."
        }
      },
      "withdraw(uint256)": {
        "details": "Withdraw from deposit. Updated balances will be returnedThe user must have enough funds in his deposit account",
        "params": {
          "amount": "The amount to be withdraw.",
          "currentAccountBalance": "Updated current account balance",
          "depositBalance": "Updated deposit balance"
        }
      }
    },
    "version": 1
  },
  "userdoc": {
    "kind": "user",
    "methods": {},
    "version": 1
  }
}